{"abi":[{"type":"constructor","inputs":[{"name":"entranceFee","type":"uint256","internalType":"uint256"},{"name":"interval","type":"uint256","internalType":"uint256"},{"name":"vrfCoordinator","type":"address","internalType":"address"},{"name":"gasLane","type":"bytes32","internalType":"bytes32"},{"name":"subscriptionId","type":"uint256","internalType":"uint256"},{"name":"callBackGasLimit","type":"uint32","internalType":"uint32"}],"stateMutability":"nonpayable"},{"type":"function","name":"acceptOwnership","inputs":[],"outputs":[],"stateMutability":"nonpayable"},{"type":"function","name":"getEntranceFee","inputs":[],"outputs":[{"name":"","type":"uint256","internalType":"uint256"}],"stateMutability":"view"},{"type":"function","name":"joinGiveAway","inputs":[],"outputs":[],"stateMutability":"payable"},{"type":"function","name":"owner","inputs":[],"outputs":[{"name":"","type":"address","internalType":"address"}],"stateMutability":"view"},{"type":"function","name":"rawFulfillRandomWords","inputs":[{"name":"requestId","type":"uint256","internalType":"uint256"},{"name":"randomWords","type":"uint256[]","internalType":"uint256[]"}],"outputs":[],"stateMutability":"nonpayable"},{"type":"function","name":"s_people","inputs":[{"name":"","type":"uint256","internalType":"uint256"}],"outputs":[{"name":"","type":"address","internalType":"address payable"}],"stateMutability":"view"},{"type":"function","name":"s_vrfCoordinator","inputs":[],"outputs":[{"name":"","type":"address","internalType":"contract IVRFCoordinatorV2Plus"}],"stateMutability":"view"},{"type":"function","name":"selectWinner","inputs":[],"outputs":[],"stateMutability":"nonpayable"},{"type":"function","name":"setCoordinator","inputs":[{"name":"_vrfCoordinator","type":"address","internalType":"address"}],"outputs":[],"stateMutability":"nonpayable"},{"type":"function","name":"transferOwnership","inputs":[{"name":"to","type":"address","internalType":"address"}],"outputs":[],"stateMutability":"nonpayable"},{"type":"event","name":"CoordinatorSet","inputs":[{"name":"vrfCoordinator","type":"address","indexed":false,"internalType":"address"}],"anonymous":false},{"type":"event","name":"GiveawayEntered","inputs":[{"name":"person","type":"address","indexed":true,"internalType":"address"}],"anonymous":false},{"type":"event","name":"OwnershipTransferRequested","inputs":[{"name":"from","type":"address","indexed":true,"internalType":"address"},{"name":"to","type":"address","indexed":true,"internalType":"address"}],"anonymous":false},{"type":"event","name":"OwnershipTransferred","inputs":[{"name":"from","type":"address","indexed":true,"internalType":"address"},{"name":"to","type":"address","indexed":true,"internalType":"address"}],"anonymous":false},{"type":"event","name":"winnerPicked","inputs":[{"name":"recentWinner","type":"address","indexed":true,"internalType":"address"}],"anonymous":false},{"type":"error","name":"GIVEAWAY_notOPen","inputs":[]},{"type":"error","name":"GiveAway__NotEnoughEth","inputs":[]},{"type":"error","name":"OnlyCoordinatorCanFulfill","inputs":[{"name":"have","type":"address","internalType":"address"},{"name":"want","type":"address","internalType":"address"}]},{"type":"error","name":"OnlyOwnerOrCoordinator","inputs":[{"name":"have","type":"address","internalType":"address"},{"name":"owner","type":"address","internalType":"address"},{"name":"coordinator","type":"address","internalType":"address"}]},{"type":"error","name":"TRANSFER__FAILED","inputs":[]},{"type":"error","name":"ZeroAddress","inputs":[]}],"bytecode":{"object":"0x6101206040523480156200001257600080fd5b5060405162001f1838038062001f188339818101604052810190620000389190620004a7565b83338060008073ffffffffffffffffffffffffffffffffffffffff168273ffffffffffffffffffffffffffffffffffffffff1603620000ae576040517f08c379a0000000000000000000000000000000000000000000000000000000008152600401620000a590620005a4565b60405180910390fd5b816000806101000a81548173ffffffffffffffffffffffffffffffffffffffff021916908373ffffffffffffffffffffffffffffffffffffffff160217905550600073ffffffffffffffffffffffffffffffffffffffff168173ffffffffffffffffffffffffffffffffffffffff1614620001355762000134816200025760201b60201c565b5b505050600073ffffffffffffffffffffffffffffffffffffffff168173ffffffffffffffffffffffffffffffffffffffff16036200019f576040517fd92e233d00000000000000000000000000000000000000000000000000000000815260040160405180910390fd5b80600260006101000a81548173ffffffffffffffffffffffffffffffffffffffff021916908373ffffffffffffffffffffffffffffffffffffffff1602179055505085608081815250508460a081815250508260c081815250508161010081815250508063ffffffff1660e08163ffffffff1681525050426004819055506000600660006101000a81548160ff02191690836001811115620002465762000245620005c6565b5b021790555050505050505062000667565b3373ffffffffffffffffffffffffffffffffffffffff168173ffffffffffffffffffffffffffffffffffffffff1603620002c8576040517f08c379a0000000000000000000000000000000000000000000000000000000008152600401620002bf9062000645565b60405180910390fd5b80600160006101000a81548173ffffffffffffffffffffffffffffffffffffffff021916908373ffffffffffffffffffffffffffffffffffffffff1602179055508073ffffffffffffffffffffffffffffffffffffffff1660008054906101000a900473ffffffffffffffffffffffffffffffffffffffff1673ffffffffffffffffffffffffffffffffffffffff167fed8889f560326eb138920d842192f0eb3dd22b4f139c87a2c57538e05bae127860405160405180910390a350565b600080fd5b6000819050919050565b620003a0816200038b565b8114620003ac57600080fd5b50565b600081519050620003c08162000395565b92915050565b600073ffffffffffffffffffffffffffffffffffffffff82169050919050565b6000620003f382620003c6565b9050919050565b6200040581620003e6565b81146200041157600080fd5b50565b6000815190506200042581620003fa565b92915050565b6000819050919050565b62000440816200042b565b81146200044c57600080fd5b50565b600081519050620004608162000435565b92915050565b600063ffffffff82169050919050565b620004818162000466565b81146200048d57600080fd5b50565b600081519050620004a18162000476565b92915050565b60008060008060008060c08789031215620004c757620004c662000386565b5b6000620004d789828a01620003af565b9650506020620004ea89828a01620003af565b9550506040620004fd89828a0162000414565b94505060606200051089828a016200044f565b93505060806200052389828a01620003af565b92505060a06200053689828a0162000490565b9150509295509295509295565b600082825260208201905092915050565b7f43616e6e6f7420736574206f776e657220746f207a65726f0000000000000000600082015250565b60006200058c60188362000543565b9150620005998262000554565b602082019050919050565b60006020820190508181036000830152620005bf816200057d565b9050919050565b7f4e487b7100000000000000000000000000000000000000000000000000000000600052602160045260246000fd5b7f43616e6e6f74207472616e7366657220746f2073656c66000000000000000000600082015250565b60006200062d60178362000543565b91506200063a82620005f5565b602082019050919050565b6000602082019050818103600083015262000660816200061e565b9050919050565b60805160a05160c05160e05161010051611865620006b3600039600061038f015260006103c001526000610369015260006102f701526000818161020b01526108a001526118656000f3fe6080604052600436106100915760003560e01c80638da5cb5b116100595780638da5cb5b146101555780638ea98117146101805780639b1865ec146101a95780639eccacf6146101b3578063f2fde38b146101de57610091565b806309bc33a7146100965780631fe543e3146100c157806333a99e04146100ea57806379ba50971461010157806382502ff814610118575b600080fd5b3480156100a257600080fd5b506100ab610207565b6040516100b89190610f97565b60405180910390f35b3480156100cd57600080fd5b506100e860048036038101906100e3919061104d565b61022f565b005b3480156100f657600080fd5b506100ff6102f5565b005b34801561010d57600080fd5b506101166104c0565b005b34801561012457600080fd5b5061013f600480360381019061013a91906110ad565b610655565b60405161014c919061111b565b60405180910390f35b34801561016157600080fd5b5061016a610694565b6040516101779190611157565b60405180910390f35b34801561018c57600080fd5b506101a760048036038101906101a2919061119e565b6106bd565b005b6101b161089e565b005b3480156101bf57600080fd5b506101c8610a0d565b6040516101d5919061122a565b60405180910390f35b3480156101ea57600080fd5b506102056004803603810190610200919061119e565b610a33565b005b60007f0000000000000000000000000000000000000000000000000000000000000000905090565b600260009054906101000a900473ffffffffffffffffffffffffffffffffffffffff1673ffffffffffffffffffffffffffffffffffffffff163373ffffffffffffffffffffffffffffffffffffffff16146102e55733600260009054906101000a900473ffffffffffffffffffffffffffffffffffffffff166040517f1cf993f40000000000000000000000000000000000000000000000000000000081526004016102dc929190611245565b60405180910390fd5b6102f0838383610a47565b505050565b7f000000000000000000000000000000000000000000000000000000000000000060045442610324919061129d565b101561032f57600080fd5b6001600660006101000a81548160ff02191690836001811115610355576103546112d1565b5b021790555060006040518060c001604052807f000000000000000000000000000000000000000000000000000000000000000081526020017f00000000000000000000000000000000000000000000000000000000000000008152602001600361ffff1681526020017f000000000000000000000000000000000000000000000000000000000000000063ffffffff168152602001600161ffff1663ffffffff168152602001610415604051806020016040528060001515815250610c83565b81525090506000600260009054906101000a900473ffffffffffffffffffffffffffffffffffffffff1673ffffffffffffffffffffffffffffffffffffffff16639b1c385e836040518263ffffffff1660e01b8152600401610477919061147d565b6020604051808303816000875af1158015610496573d6000803e3d6000fd5b505050506040513d601f19601f820116820180604052508101906104ba91906114b4565b90505050565b600160009054906101000a900473ffffffffffffffffffffffffffffffffffffffff1673ffffffffffffffffffffffffffffffffffffffff163373ffffffffffffffffffffffffffffffffffffffff1614610550576040517f08c379a00000000000000000000000000000000000000000000000000000000081526004016105479061153e565b60405180910390fd5b60008060009054906101000a900473ffffffffffffffffffffffffffffffffffffffff169050336000806101000a81548173ffffffffffffffffffffffffffffffffffffffff021916908373ffffffffffffffffffffffffffffffffffffffff1602179055506000600160006101000a81548173ffffffffffffffffffffffffffffffffffffffff021916908373ffffffffffffffffffffffffffffffffffffffff1602179055503373ffffffffffffffffffffffffffffffffffffffff168173ffffffffffffffffffffffffffffffffffffffff167f8be0079c531659141344cd1fd0a4f28419497f9722a3daafe3b4186f6b6457e060405160405180910390a350565b6005818154811061066557600080fd5b906000526020600020016000915054906101000a900473ffffffffffffffffffffffffffffffffffffffff1681565b60008060009054906101000a900473ffffffffffffffffffffffffffffffffffffffff16905090565b6106c5610694565b73ffffffffffffffffffffffffffffffffffffffff163373ffffffffffffffffffffffffffffffffffffffff161415801561074e5750600260009054906101000a900473ffffffffffffffffffffffffffffffffffffffff1673ffffffffffffffffffffffffffffffffffffffff163373ffffffffffffffffffffffffffffffffffffffff1614155b156107bd573361075c610694565b600260009054906101000a900473ffffffffffffffffffffffffffffffffffffffff166040517f061db9c10000000000000000000000000000000000000000000000000000000081526004016107b49392919061155e565b60405180910390fd5b600073ffffffffffffffffffffffffffffffffffffffff168173ffffffffffffffffffffffffffffffffffffffff1603610823576040517fd92e233d00000000000000000000000000000000000000000000000000000000815260040160405180910390fd5b80600260006101000a81548173ffffffffffffffffffffffffffffffffffffffff021916908373ffffffffffffffffffffffffffffffffffffffff1602179055507fd1a6a14209a385a964d036e404cb5cfb71f4000cdb03c9366292430787261be6816040516108939190611157565b60405180910390a150565b7f00000000000000000000000000000000000000000000000000000000000000003410156108f8576040517fa888076b00000000000000000000000000000000000000000000000000000000815260040160405180910390fd5b6000600181111561090c5761090b6112d1565b5b600660009054906101000a900460ff16600181111561092e5761092d6112d1565b5b14610965576040517f3ae8aea400000000000000000000000000000000000000000000000000000000815260040160405180910390fd5b6005339080600181540180825580915050600190039060005260206000200160009091909190916101000a81548173ffffffffffffffffffffffffffffffffffffffff021916908373ffffffffffffffffffffffffffffffffffffffff1602179055503373ffffffffffffffffffffffffffffffffffffffff167f3a5c13ff753770560290abe3370a32d85cff26204c9055166b466546a5da255660405160405180910390a2565b600260009054906101000a900473ffffffffffffffffffffffffffffffffffffffff1681565b610a3b610d1b565b610a4481610dab565b50565b600060058054905083836000818110610a6357610a62611595565b5b90506020020135610a7491906115f3565b9050600060058281548110610a8c57610a8b611595565b5b9060005260206000200160009054906101000a900473ffffffffffffffffffffffffffffffffffffffff16905080600360006101000a81548173ffffffffffffffffffffffffffffffffffffffff021916908373ffffffffffffffffffffffffffffffffffffffff1602179055506000600660006101000a81548160ff02191690836001811115610b2057610b1f6112d1565b5b0217905550600067ffffffffffffffff811115610b4057610b3f611624565b5b604051908082528060200260200182016040528015610b6e5781602001602082028036833780820191505090505b5060059080519060200190610b84929190610ed7565b504260048190555060008173ffffffffffffffffffffffffffffffffffffffff1647604051610bb290611684565b60006040518083038185875af1925050503d8060008114610bef576040519150601f19603f3d011682016040523d82523d6000602084013e610bf4565b606091505b5050905080610c38576040517f08c379a0000000000000000000000000000000000000000000000000000000008152600401610c2f906116e5565b60405180910390fd5b8173ffffffffffffffffffffffffffffffffffffffff167f794919b0f484b8e90b1b817ac7f880f846fbd8a9813dee2a378e820db094e3d160405160405180910390a2505050505050565b60607f92fd13387c7fe7befbc38d303d6468778fb9731bc4583f17d92989c6fcfdeaaa82604051602401610cb7919061173c565b604051602081830303815290604052907bffffffffffffffffffffffffffffffffffffffffffffffffffffffff19166020820180517bffffffffffffffffffffffffffffffffffffffffffffffffffffffff83818316178352505050509050919050565b60008054906101000a900473ffffffffffffffffffffffffffffffffffffffff1673ffffffffffffffffffffffffffffffffffffffff163373ffffffffffffffffffffffffffffffffffffffff1614610da9576040517f08c379a0000000000000000000000000000000000000000000000000000000008152600401610da0906117a3565b60405180910390fd5b565b3373ffffffffffffffffffffffffffffffffffffffff168173ffffffffffffffffffffffffffffffffffffffff1603610e19576040517f08c379a0000000000000000000000000000000000000000000000000000000008152600401610e109061180f565b60405180910390fd5b80600160006101000a81548173ffffffffffffffffffffffffffffffffffffffff021916908373ffffffffffffffffffffffffffffffffffffffff1602179055508073ffffffffffffffffffffffffffffffffffffffff1660008054906101000a900473ffffffffffffffffffffffffffffffffffffffff1673ffffffffffffffffffffffffffffffffffffffff167fed8889f560326eb138920d842192f0eb3dd22b4f139c87a2c57538e05bae127860405160405180910390a350565b828054828255906000526020600020908101928215610f50579160200282015b82811115610f4f5782518260006101000a81548173ffffffffffffffffffffffffffffffffffffffff021916908373ffffffffffffffffffffffffffffffffffffffff16021790555091602001919060010190610ef7565b5b509050610f5d9190610f61565b5090565b5b80821115610f7a576000816000905550600101610f62565b5090565b6000819050919050565b610f9181610f7e565b82525050565b6000602082019050610fac6000830184610f88565b92915050565b600080fd5b600080fd5b610fc581610f7e565b8114610fd057600080fd5b50565b600081359050610fe281610fbc565b92915050565b600080fd5b600080fd5b600080fd5b60008083601f84011261100d5761100c610fe8565b5b8235905067ffffffffffffffff81111561102a57611029610fed565b5b60208301915083602082028301111561104657611045610ff2565b5b9250929050565b60008060006040848603121561106657611065610fb2565b5b600061107486828701610fd3565b935050602084013567ffffffffffffffff81111561109557611094610fb7565b5b6110a186828701610ff7565b92509250509250925092565b6000602082840312156110c3576110c2610fb2565b5b60006110d184828501610fd3565b91505092915050565b600073ffffffffffffffffffffffffffffffffffffffff82169050919050565b6000611105826110da565b9050919050565b611115816110fa565b82525050565b6000602082019050611130600083018461110c565b92915050565b6000611141826110da565b9050919050565b61115181611136565b82525050565b600060208201905061116c6000830184611148565b92915050565b61117b81611136565b811461118657600080fd5b50565b60008135905061119881611172565b92915050565b6000602082840312156111b4576111b3610fb2565b5b60006111c284828501611189565b91505092915050565b6000819050919050565b60006111f06111eb6111e6846110da565b6111cb565b6110da565b9050919050565b6000611202826111d5565b9050919050565b6000611214826111f7565b9050919050565b61122481611209565b82525050565b600060208201905061123f600083018461121b565b92915050565b600060408201905061125a6000830185611148565b6112676020830184611148565b9392505050565b7f4e487b7100000000000000000000000000000000000000000000000000000000600052601160045260246000fd5b60006112a882610f7e565b91506112b383610f7e565b92508282039050818111156112cb576112ca61126e565b5b92915050565b7f4e487b7100000000000000000000000000000000000000000000000000000000600052602160045260246000fd5b6000819050919050565b61131381611300565b82525050565b61132281610f7e565b82525050565b600061ffff82169050919050565b61133f81611328565b82525050565b600063ffffffff82169050919050565b61135e81611345565b82525050565b600081519050919050565b600082825260208201905092915050565b60005b8381101561139e578082015181840152602081019050611383565b60008484015250505050565b6000601f19601f8301169050919050565b60006113c682611364565b6113d0818561136f565b93506113e0818560208601611380565b6113e9816113aa565b840191505092915050565b600060c08301600083015161140c600086018261130a565b50602083015161141f6020860182611319565b5060408301516114326040860182611336565b5060608301516114456060860182611355565b5060808301516114586080860182611355565b5060a083015184820360a086015261147082826113bb565b9150508091505092915050565b6000602082019050818103600083015261149781846113f4565b905092915050565b6000815190506114ae81610fbc565b92915050565b6000602082840312156114ca576114c9610fb2565b5b60006114d88482850161149f565b91505092915050565b600082825260208201905092915050565b7f4d7573742062652070726f706f736564206f776e657200000000000000000000600082015250565b60006115286016836114e1565b9150611533826114f2565b602082019050919050565b600060208201905081810360008301526115578161151b565b9050919050565b60006060820190506115736000830186611148565b6115806020830185611148565b61158d6040830184611148565b949350505050565b7f4e487b7100000000000000000000000000000000000000000000000000000000600052603260045260246000fd5b7f4e487b7100000000000000000000000000000000000000000000000000000000600052601260045260246000fd5b60006115fe82610f7e565b915061160983610f7e565b925082611619576116186115c4565b5b828206905092915050565b7f4e487b7100000000000000000000000000000000000000000000000000000000600052604160045260246000fd5b600081905092915050565b50565b600061166e600083611653565b91506116798261165e565b600082019050919050565b600061168f82611661565b9150819050919050565b7f5472616e73666572206661696c65640000000000000000000000000000000000600082015250565b60006116cf600f836114e1565b91506116da82611699565b602082019050919050565b600060208201905081810360008301526116fe816116c2565b9050919050565b60008115159050919050565b61171a81611705565b82525050565b6020820160008201516117366000850182611711565b50505050565b60006020820190506117516000830184611720565b92915050565b7f4f6e6c792063616c6c61626c65206279206f776e657200000000000000000000600082015250565b600061178d6016836114e1565b915061179882611757565b602082019050919050565b600060208201905081810360008301526117bc81611780565b9050919050565b7f43616e6e6f74207472616e7366657220746f2073656c66000000000000000000600082015250565b60006117f96017836114e1565b9150611804826117c3565b602082019050919050565b60006020820190508181036000830152611828816117ec565b905091905056fea2646970667358221220e6d4688ffb00c33262aab0fc7b1bb6a476ebbe31ab3704531d38fd136bf1116764736f6c63430008130033","linkReferences":{}},"methodIdentifiers":{"acceptOwnership()":"79ba5097","getEntranceFee()":"09bc33a7","joinGiveAway()":"9b1865ec","owner()":"8da5cb5b","rawFulfillRandomWords(uint256,uint256[])":"1fe543e3","s_people(uint256)":"82502ff8","s_vrfCoordinator()":"9eccacf6","selectWinner()":"33a99e04","setCoordinator(address)":"8ea98117","transferOwnership(address)":"f2fde38b"},"id":8}