{"abi":[{"type":"constructor","inputs":[{"name":"entranceFee","type":"uint256","internalType":"uint256"},{"name":"interval","type":"uint256","internalType":"uint256"},{"name":"vrfCoordinator","type":"address","internalType":"address"},{"name":"gasLane","type":"bytes32","internalType":"bytes32"},{"name":"subscriptionId","type":"uint256","internalType":"uint256"},{"name":"callBackGasLimit","type":"uint32","internalType":"uint32"}],"stateMutability":"nonpayable"},{"type":"function","name":"acceptOwnership","inputs":[],"outputs":[],"stateMutability":"nonpayable"},{"type":"function","name":"checkUpkeep","inputs":[{"name":"","type":"bytes","internalType":"bytes"}],"outputs":[{"name":"upKeepNeeded","type":"bool","internalType":"bool"},{"name":"","type":"bytes","internalType":"bytes"}],"stateMutability":"view"},{"type":"function","name":"getEntranceFee","inputs":[],"outputs":[{"name":"","type":"uint256","internalType":"uint256"}],"stateMutability":"view"},{"type":"function","name":"joinGiveAway","inputs":[],"outputs":[],"stateMutability":"payable"},{"type":"function","name":"owner","inputs":[],"outputs":[{"name":"","type":"address","internalType":"address"}],"stateMutability":"view"},{"type":"function","name":"performUpkeep","inputs":[{"name":"","type":"bytes","internalType":"bytes"}],"outputs":[],"stateMutability":"nonpayable"},{"type":"function","name":"rawFulfillRandomWords","inputs":[{"name":"requestId","type":"uint256","internalType":"uint256"},{"name":"randomWords","type":"uint256[]","internalType":"uint256[]"}],"outputs":[],"stateMutability":"nonpayable"},{"type":"function","name":"s_people","inputs":[{"name":"","type":"uint256","internalType":"uint256"}],"outputs":[{"name":"","type":"address","internalType":"address payable"}],"stateMutability":"view"},{"type":"function","name":"s_vrfCoordinator","inputs":[],"outputs":[{"name":"","type":"address","internalType":"contract IVRFCoordinatorV2Plus"}],"stateMutability":"view"},{"type":"function","name":"setCoordinator","inputs":[{"name":"_vrfCoordinator","type":"address","internalType":"address"}],"outputs":[],"stateMutability":"nonpayable"},{"type":"function","name":"transferOwnership","inputs":[{"name":"to","type":"address","internalType":"address"}],"outputs":[],"stateMutability":"nonpayable"},{"type":"event","name":"CoordinatorSet","inputs":[{"name":"vrfCoordinator","type":"address","indexed":false,"internalType":"address"}],"anonymous":false},{"type":"event","name":"GiveawayEntered","inputs":[{"name":"person","type":"address","indexed":true,"internalType":"address"}],"anonymous":false},{"type":"event","name":"OwnershipTransferRequested","inputs":[{"name":"from","type":"address","indexed":true,"internalType":"address"},{"name":"to","type":"address","indexed":true,"internalType":"address"}],"anonymous":false},{"type":"event","name":"OwnershipTransferred","inputs":[{"name":"from","type":"address","indexed":true,"internalType":"address"},{"name":"to","type":"address","indexed":true,"internalType":"address"}],"anonymous":false},{"type":"event","name":"winnerPicked","inputs":[{"name":"recentWinner","type":"address","indexed":true,"internalType":"address"}],"anonymous":false},{"type":"error","name":"GIVEAWAY_notOPen","inputs":[]},{"type":"error","name":"GiveAway_UpKeepNotNeeded","inputs":[{"name":"balance","type":"uint256","internalType":"uint256"},{"name":"playersLength","type":"uint256","internalType":"uint256"},{"name":"giveAwayStae","type":"uint256","internalType":"uint256"}]},{"type":"error","name":"GiveAway__NotEnoughEth","inputs":[]},{"type":"error","name":"OnlyCoordinatorCanFulfill","inputs":[{"name":"have","type":"address","internalType":"address"},{"name":"want","type":"address","internalType":"address"}]},{"type":"error","name":"OnlyOwnerOrCoordinator","inputs":[{"name":"have","type":"address","internalType":"address"},{"name":"owner","type":"address","internalType":"address"},{"name":"coordinator","type":"address","internalType":"address"}]},{"type":"error","name":"TRANSFER__FAILED","inputs":[]},{"type":"error","name":"ZeroAddress","inputs":[]}],"bytecode":{"object":"0x6101206040523480156200001257600080fd5b506040516200233e3803806200233e8339818101604052810190620000389190620004a7565b83338060008073ffffffffffffffffffffffffffffffffffffffff168273ffffffffffffffffffffffffffffffffffffffff1603620000ae576040517f08c379a0000000000000000000000000000000000000000000000000000000008152600401620000a590620005a4565b60405180910390fd5b816000806101000a81548173ffffffffffffffffffffffffffffffffffffffff021916908373ffffffffffffffffffffffffffffffffffffffff160217905550600073ffffffffffffffffffffffffffffffffffffffff168173ffffffffffffffffffffffffffffffffffffffff1614620001355762000134816200025760201b60201c565b5b505050600073ffffffffffffffffffffffffffffffffffffffff168173ffffffffffffffffffffffffffffffffffffffff16036200019f576040517fd92e233d00000000000000000000000000000000000000000000000000000000815260040160405180910390fd5b80600260006101000a81548173ffffffffffffffffffffffffffffffffffffffff021916908373ffffffffffffffffffffffffffffffffffffffff1602179055505085608081815250508460a081815250508260c081815250508161010081815250508063ffffffff1660e08163ffffffff1681525050426004819055506000600660006101000a81548160ff02191690836001811115620002465762000245620005c6565b5b021790555050505050505062000667565b3373ffffffffffffffffffffffffffffffffffffffff168173ffffffffffffffffffffffffffffffffffffffff1603620002c8576040517f08c379a0000000000000000000000000000000000000000000000000000000008152600401620002bf9062000645565b60405180910390fd5b80600160006101000a81548173ffffffffffffffffffffffffffffffffffffffff021916908373ffffffffffffffffffffffffffffffffffffffff1602179055508073ffffffffffffffffffffffffffffffffffffffff1660008054906101000a900473ffffffffffffffffffffffffffffffffffffffff1673ffffffffffffffffffffffffffffffffffffffff167fed8889f560326eb138920d842192f0eb3dd22b4f139c87a2c57538e05bae127860405160405180910390a350565b600080fd5b6000819050919050565b620003a0816200038b565b8114620003ac57600080fd5b50565b600081519050620003c08162000395565b92915050565b600073ffffffffffffffffffffffffffffffffffffffff82169050919050565b6000620003f382620003c6565b9050919050565b6200040581620003e6565b81146200041157600080fd5b50565b6000815190506200042581620003fa565b92915050565b6000819050919050565b62000440816200042b565b81146200044c57600080fd5b50565b600081519050620004608162000435565b92915050565b600063ffffffff82169050919050565b620004818162000466565b81146200048d57600080fd5b50565b600081519050620004a18162000476565b92915050565b60008060008060008060c08789031215620004c757620004c662000386565b5b6000620004d789828a01620003af565b9650506020620004ea89828a01620003af565b9550506040620004fd89828a0162000414565b94505060606200051089828a016200044f565b93505060806200052389828a01620003af565b92505060a06200053689828a0162000490565b9150509295509295509295565b600082825260208201905092915050565b7f43616e6e6f7420736574206f776e657220746f207a65726f0000000000000000600082015250565b60006200058c60188362000543565b9150620005998262000554565b602082019050919050565b60006020820190508181036000830152620005bf816200057d565b9050919050565b7f4e487b7100000000000000000000000000000000000000000000000000000000600052602160045260246000fd5b7f43616e6e6f74207472616e7366657220746f2073656c66000000000000000000600082015250565b60006200062d60178362000543565b91506200063a82620005f5565b602082019050919050565b6000602082019050818103600083015262000660816200061e565b9050919050565b60805160a05160c05160e05161010051611c8b620006b360003960006104390152600061046a01526000610413015260006105750152600081816102660152610a0f0152611c8b6000f3fe60806040526004361061009c5760003560e01c806382502ff81161006457806382502ff8146101735780638da5cb5b146101b05780638ea98117146101db5780639b1865ec146102045780639eccacf61461020e578063f2fde38b146102395761009c565b806309bc33a7146100a15780631fe543e3146100cc5780634585e33b146100f55780636e04ff0d1461011e57806379ba50971461015c575b600080fd5b3480156100ad57600080fd5b506100b6610262565b6040516100c39190611106565b60405180910390f35b3480156100d857600080fd5b506100f360048036038101906100ee91906111c6565b61028a565b005b34801561010157600080fd5b5061011c6004803603810190610117919061127c565b610350565b005b34801561012a57600080fd5b506101456004803603810190610140919061140a565b61056d565b6040516101539291906114ed565b60405180910390f35b34801561016857600080fd5b5061017161062f565b005b34801561017f57600080fd5b5061019a6004803603810190610195919061151d565b6107c4565b6040516101a7919061158b565b60405180910390f35b3480156101bc57600080fd5b506101c5610803565b6040516101d291906115c7565b60405180910390f35b3480156101e757600080fd5b5061020260048036038101906101fd919061160e565b61082c565b005b61020c610a0d565b005b34801561021a57600080fd5b50610223610b7c565b604051610230919061169a565b60405180910390f35b34801561024557600080fd5b50610260600480360381019061025b919061160e565b610ba2565b005b60007f0000000000000000000000000000000000000000000000000000000000000000905090565b600260009054906101000a900473ffffffffffffffffffffffffffffffffffffffff1673ffffffffffffffffffffffffffffffffffffffff163373ffffffffffffffffffffffffffffffffffffffff16146103405733600260009054906101000a900473ffffffffffffffffffffffffffffffffffffffff166040517f1cf993f40000000000000000000000000000000000000000000000000000000081526004016103379291906116b5565b60405180910390fd5b61034b838383610bb6565b505050565b600061036a6040518060200160405280600081525061056d565b509050806103d95747600580549050600660009054906101000a900460ff16600181111561039b5761039a6116de565b5b6040517f9c3c80a80000000000000000000000000000000000000000000000000000000081526004016103d09392919061170d565b60405180910390fd5b6001600660006101000a81548160ff021916908360018111156103ff576103fe6116de565b5b021790555060006040518060c001604052807f000000000000000000000000000000000000000000000000000000000000000081526020017f00000000000000000000000000000000000000000000000000000000000000008152602001600361ffff1681526020017f000000000000000000000000000000000000000000000000000000000000000063ffffffff168152602001600161ffff1663ffffffff1681526020016104bf604051806020016040528060001515815250610df2565b81525090506000600260009054906101000a900473ffffffffffffffffffffffffffffffffffffffff1673ffffffffffffffffffffffffffffffffffffffff16639b1c385e836040518263ffffffff1660e01b8152600401610521919061187b565b6020604051808303816000875af1158015610540573d6000803e3d6000fd5b505050506040513d601f19601f8201168201806040525081019061056491906118b2565b90505050505050565b6000606060007f0000000000000000000000000000000000000000000000000000000000000000600454426105a2919061190e565b1015905060008060018111156105bb576105ba6116de565b5b600660009054906101000a900460ff1660018111156105dd576105dc6116de565b5b149050600080471190506000806005805490501190508380156105fd5750825b80156106065750815b801561060f5750805b955085604051806020016040528060008152509550955050505050915091565b600160009054906101000a900473ffffffffffffffffffffffffffffffffffffffff1673ffffffffffffffffffffffffffffffffffffffff163373ffffffffffffffffffffffffffffffffffffffff16146106bf576040517f08c379a00000000000000000000000000000000000000000000000000000000081526004016106b69061199f565b60405180910390fd5b60008060009054906101000a900473ffffffffffffffffffffffffffffffffffffffff169050336000806101000a81548173ffffffffffffffffffffffffffffffffffffffff021916908373ffffffffffffffffffffffffffffffffffffffff1602179055506000600160006101000a81548173ffffffffffffffffffffffffffffffffffffffff021916908373ffffffffffffffffffffffffffffffffffffffff1602179055503373ffffffffffffffffffffffffffffffffffffffff168173ffffffffffffffffffffffffffffffffffffffff167f8be0079c531659141344cd1fd0a4f28419497f9722a3daafe3b4186f6b6457e060405160405180910390a350565b600581815481106107d457600080fd5b906000526020600020016000915054906101000a900473ffffffffffffffffffffffffffffffffffffffff1681565b60008060009054906101000a900473ffffffffffffffffffffffffffffffffffffffff16905090565b610834610803565b73ffffffffffffffffffffffffffffffffffffffff163373ffffffffffffffffffffffffffffffffffffffff16141580156108bd5750600260009054906101000a900473ffffffffffffffffffffffffffffffffffffffff1673ffffffffffffffffffffffffffffffffffffffff163373ffffffffffffffffffffffffffffffffffffffff1614155b1561092c57336108cb610803565b600260009054906101000a900473ffffffffffffffffffffffffffffffffffffffff166040517f061db9c1000000000000000000000000000000000000000000000000000000008152600401610923939291906119bf565b60405180910390fd5b600073ffffffffffffffffffffffffffffffffffffffff168173ffffffffffffffffffffffffffffffffffffffff1603610992576040517fd92e233d00000000000000000000000000000000000000000000000000000000815260040160405180910390fd5b80600260006101000a81548173ffffffffffffffffffffffffffffffffffffffff021916908373ffffffffffffffffffffffffffffffffffffffff1602179055507fd1a6a14209a385a964d036e404cb5cfb71f4000cdb03c9366292430787261be681604051610a0291906115c7565b60405180910390a150565b7f0000000000000000000000000000000000000000000000000000000000000000341015610a67576040517fa888076b00000000000000000000000000000000000000000000000000000000815260040160405180910390fd5b60006001811115610a7b57610a7a6116de565b5b600660009054906101000a900460ff166001811115610a9d57610a9c6116de565b5b14610ad4576040517f3ae8aea400000000000000000000000000000000000000000000000000000000815260040160405180910390fd5b6005339080600181540180825580915050600190039060005260206000200160009091909190916101000a81548173ffffffffffffffffffffffffffffffffffffffff021916908373ffffffffffffffffffffffffffffffffffffffff1602179055503373ffffffffffffffffffffffffffffffffffffffff167f3a5c13ff753770560290abe3370a32d85cff26204c9055166b466546a5da255660405160405180910390a2565b600260009054906101000a900473ffffffffffffffffffffffffffffffffffffffff1681565b610baa610e8a565b610bb381610f1a565b50565b600060058054905083836000818110610bd257610bd16119f6565b5b90506020020135610be39190611a54565b9050600060058281548110610bfb57610bfa6119f6565b5b9060005260206000200160009054906101000a900473ffffffffffffffffffffffffffffffffffffffff16905080600360006101000a81548173ffffffffffffffffffffffffffffffffffffffff021916908373ffffffffffffffffffffffffffffffffffffffff1602179055506000600660006101000a81548160ff02191690836001811115610c8f57610c8e6116de565b5b0217905550600067ffffffffffffffff811115610caf57610cae6112df565b5b604051908082528060200260200182016040528015610cdd5781602001602082028036833780820191505090505b5060059080519060200190610cf3929190611046565b50426004819055508073ffffffffffffffffffffffffffffffffffffffff167f794919b0f484b8e90b1b817ac7f880f846fbd8a9813dee2a378e820db094e3d160405160405180910390a260008173ffffffffffffffffffffffffffffffffffffffff1647604051610d6490611ab6565b60006040518083038185875af1925050503d8060008114610da1576040519150601f19603f3d011682016040523d82523d6000602084013e610da6565b606091505b5050905080610dea576040517f08c379a0000000000000000000000000000000000000000000000000000000008152600401610de190611b17565b60405180910390fd5b505050505050565b60607f92fd13387c7fe7befbc38d303d6468778fb9731bc4583f17d92989c6fcfdeaaa82604051602401610e269190611b62565b604051602081830303815290604052907bffffffffffffffffffffffffffffffffffffffffffffffffffffffff19166020820180517bffffffffffffffffffffffffffffffffffffffffffffffffffffffff83818316178352505050509050919050565b60008054906101000a900473ffffffffffffffffffffffffffffffffffffffff1673ffffffffffffffffffffffffffffffffffffffff163373ffffffffffffffffffffffffffffffffffffffff1614610f18576040517f08c379a0000000000000000000000000000000000000000000000000000000008152600401610f0f90611bc9565b60405180910390fd5b565b3373ffffffffffffffffffffffffffffffffffffffff168173ffffffffffffffffffffffffffffffffffffffff1603610f88576040517f08c379a0000000000000000000000000000000000000000000000000000000008152600401610f7f90611c35565b60405180910390fd5b80600160006101000a81548173ffffffffffffffffffffffffffffffffffffffff021916908373ffffffffffffffffffffffffffffffffffffffff1602179055508073ffffffffffffffffffffffffffffffffffffffff1660008054906101000a900473ffffffffffffffffffffffffffffffffffffffff1673ffffffffffffffffffffffffffffffffffffffff167fed8889f560326eb138920d842192f0eb3dd22b4f139c87a2c57538e05bae127860405160405180910390a350565b8280548282559060005260206000209081019282156110bf579160200282015b828111156110be5782518260006101000a81548173ffffffffffffffffffffffffffffffffffffffff021916908373ffffffffffffffffffffffffffffffffffffffff16021790555091602001919060010190611066565b5b5090506110cc91906110d0565b5090565b5b808211156110e95760008160009055506001016110d1565b5090565b6000819050919050565b611100816110ed565b82525050565b600060208201905061111b60008301846110f7565b92915050565b6000604051905090565b600080fd5b600080fd5b61113e816110ed565b811461114957600080fd5b50565b60008135905061115b81611135565b92915050565b600080fd5b600080fd5b600080fd5b60008083601f84011261118657611185611161565b5b8235905067ffffffffffffffff8111156111a3576111a2611166565b5b6020830191508360208202830111156111bf576111be61116b565b5b9250929050565b6000806000604084860312156111df576111de61112b565b5b60006111ed8682870161114c565b935050602084013567ffffffffffffffff81111561120e5761120d611130565b5b61121a86828701611170565b92509250509250925092565b60008083601f84011261123c5761123b611161565b5b8235905067ffffffffffffffff81111561125957611258611166565b5b6020830191508360018202830111156112755761127461116b565b5b9250929050565b600080602083850312156112935761129261112b565b5b600083013567ffffffffffffffff8111156112b1576112b0611130565b5b6112bd85828601611226565b92509250509250929050565b600080fd5b6000601f19601f8301169050919050565b7f4e487b7100000000000000000000000000000000000000000000000000000000600052604160045260246000fd5b611317826112ce565b810181811067ffffffffffffffff82111715611336576113356112df565b5b80604052505050565b6000611349611121565b9050611355828261130e565b919050565b600067ffffffffffffffff821115611375576113746112df565b5b61137e826112ce565b9050602081019050919050565b82818337600083830152505050565b60006113ad6113a88461135a565b61133f565b9050828152602081018484840111156113c9576113c86112c9565b5b6113d484828561138b565b509392505050565b600082601f8301126113f1576113f0611161565b5b813561140184826020860161139a565b91505092915050565b6000602082840312156114205761141f61112b565b5b600082013567ffffffffffffffff81111561143e5761143d611130565b5b61144a848285016113dc565b91505092915050565b60008115159050919050565b61146881611453565b82525050565b600081519050919050565b600082825260208201905092915050565b60005b838110156114a857808201518184015260208101905061148d565b60008484015250505050565b60006114bf8261146e565b6114c98185611479565b93506114d981856020860161148a565b6114e2816112ce565b840191505092915050565b6000604082019050611502600083018561145f565b818103602083015261151481846114b4565b90509392505050565b6000602082840312156115335761153261112b565b5b60006115418482850161114c565b91505092915050565b600073ffffffffffffffffffffffffffffffffffffffff82169050919050565b60006115758261154a565b9050919050565b6115858161156a565b82525050565b60006020820190506115a0600083018461157c565b92915050565b60006115b18261154a565b9050919050565b6115c1816115a6565b82525050565b60006020820190506115dc60008301846115b8565b92915050565b6115eb816115a6565b81146115f657600080fd5b50565b600081359050611608816115e2565b92915050565b6000602082840312156116245761162361112b565b5b6000611632848285016115f9565b91505092915050565b6000819050919050565b600061166061165b6116568461154a565b61163b565b61154a565b9050919050565b600061167282611645565b9050919050565b600061168482611667565b9050919050565b61169481611679565b82525050565b60006020820190506116af600083018461168b565b92915050565b60006040820190506116ca60008301856115b8565b6116d760208301846115b8565b9392505050565b7f4e487b7100000000000000000000000000000000000000000000000000000000600052602160045260246000fd5b600060608201905061172260008301866110f7565b61172f60208301856110f7565b61173c60408301846110f7565b949350505050565b6000819050919050565b61175781611744565b82525050565b611766816110ed565b82525050565b600061ffff82169050919050565b6117838161176c565b82525050565b600063ffffffff82169050919050565b6117a281611789565b82525050565b600082825260208201905092915050565b60006117c48261146e565b6117ce81856117a8565b93506117de81856020860161148a565b6117e7816112ce565b840191505092915050565b600060c08301600083015161180a600086018261174e565b50602083015161181d602086018261175d565b506040830151611830604086018261177a565b5060608301516118436060860182611799565b5060808301516118566080860182611799565b5060a083015184820360a086015261186e82826117b9565b9150508091505092915050565b6000602082019050818103600083015261189581846117f2565b905092915050565b6000815190506118ac81611135565b92915050565b6000602082840312156118c8576118c761112b565b5b60006118d68482850161189d565b91505092915050565b7f4e487b7100000000000000000000000000000000000000000000000000000000600052601160045260246000fd5b6000611919826110ed565b9150611924836110ed565b925082820390508181111561193c5761193b6118df565b5b92915050565b600082825260208201905092915050565b7f4d7573742062652070726f706f736564206f776e657200000000000000000000600082015250565b6000611989601683611942565b915061199482611953565b602082019050919050565b600060208201905081810360008301526119b88161197c565b9050919050565b60006060820190506119d460008301866115b8565b6119e160208301856115b8565b6119ee60408301846115b8565b949350505050565b7f4e487b7100000000000000000000000000000000000000000000000000000000600052603260045260246000fd5b7f4e487b7100000000000000000000000000000000000000000000000000000000600052601260045260246000fd5b6000611a5f826110ed565b9150611a6a836110ed565b925082611a7a57611a79611a25565b5b828206905092915050565b600081905092915050565b50565b6000611aa0600083611a85565b9150611aab82611a90565b600082019050919050565b6000611ac182611a93565b9150819050919050565b7f5472616e73666572206661696c65640000000000000000000000000000000000600082015250565b6000611b01600f83611942565b9150611b0c82611acb565b602082019050919050565b60006020820190508181036000830152611b3081611af4565b9050919050565b611b4081611453565b82525050565b602082016000820151611b5c6000850182611b37565b50505050565b6000602082019050611b776000830184611b46565b92915050565b7f4f6e6c792063616c6c61626c65206279206f776e657200000000000000000000600082015250565b6000611bb3601683611942565b9150611bbe82611b7d565b602082019050919050565b60006020820190508181036000830152611be281611ba6565b9050919050565b7f43616e6e6f74207472616e7366657220746f2073656c66000000000000000000600082015250565b6000611c1f601783611942565b9150611c2a82611be9565b602082019050919050565b60006020820190508181036000830152611c4e81611c12565b905091905056fea26469706673582212200ac4a62fed03175b783282bbc2d9ecbe4dee84684ef4b284ddb35849484adfe164736f6c63430008130033","linkReferences":{}},"methodIdentifiers":{"acceptOwnership()":"79ba5097","checkUpkeep(bytes)":"6e04ff0d","getEntranceFee()":"09bc33a7","joinGiveAway()":"9b1865ec","owner()":"8da5cb5b","performUpkeep(bytes)":"4585e33b","rawFulfillRandomWords(uint256,uint256[])":"1fe543e3","s_people(uint256)":"82502ff8","s_vrfCoordinator()":"9eccacf6","setCoordinator(address)":"8ea98117","transferOwnership(address)":"f2fde38b"},"id":8}