{"abi":[{"type":"constructor","inputs":[{"name":"entranceFee","type":"uint256","internalType":"uint256"},{"name":"interval","type":"uint256","internalType":"uint256"},{"name":"vrfCoordinator","type":"address","internalType":"address"}],"stateMutability":"nonpayable"},{"type":"function","name":"acceptOwnership","inputs":[],"outputs":[],"stateMutability":"nonpayable"},{"type":"function","name":"getEntranceFee","inputs":[],"outputs":[{"name":"","type":"uint256","internalType":"uint256"}],"stateMutability":"view"},{"type":"function","name":"joinGiveAway","inputs":[],"outputs":[],"stateMutability":"payable"},{"type":"function","name":"owner","inputs":[],"outputs":[{"name":"","type":"address","internalType":"address"}],"stateMutability":"view"},{"type":"function","name":"rawFulfillRandomWords","inputs":[{"name":"requestId","type":"uint256","internalType":"uint256"},{"name":"randomWords","type":"uint256[]","internalType":"uint256[]"}],"outputs":[],"stateMutability":"nonpayable"},{"type":"function","name":"s_people","inputs":[{"name":"","type":"uint256","internalType":"uint256"}],"outputs":[{"name":"","type":"address","internalType":"address payable"}],"stateMutability":"view"},{"type":"function","name":"s_vrfCoordinator","inputs":[],"outputs":[{"name":"","type":"address","internalType":"contract IVRFCoordinatorV2Plus"}],"stateMutability":"view"},{"type":"function","name":"selectWinner","inputs":[],"outputs":[],"stateMutability":"nonpayable"},{"type":"function","name":"setCoordinator","inputs":[{"name":"_vrfCoordinator","type":"address","internalType":"address"}],"outputs":[],"stateMutability":"nonpayable"},{"type":"function","name":"transferOwnership","inputs":[{"name":"to","type":"address","internalType":"address"}],"outputs":[],"stateMutability":"nonpayable"},{"type":"event","name":"CoordinatorSet","inputs":[{"name":"vrfCoordinator","type":"address","indexed":false,"internalType":"address"}],"anonymous":false},{"type":"event","name":"GiveawayEntered","inputs":[{"name":"number","type":"address","indexed":true,"internalType":"address"}],"anonymous":false},{"type":"event","name":"OwnershipTransferRequested","inputs":[{"name":"from","type":"address","indexed":true,"internalType":"address"},{"name":"to","type":"address","indexed":true,"internalType":"address"}],"anonymous":false},{"type":"event","name":"OwnershipTransferred","inputs":[{"name":"from","type":"address","indexed":true,"internalType":"address"},{"name":"to","type":"address","indexed":true,"internalType":"address"}],"anonymous":false},{"type":"error","name":"GiveAway__NotEnoughEth","inputs":[]},{"type":"error","name":"OnlyCoordinatorCanFulfill","inputs":[{"name":"have","type":"address","internalType":"address"},{"name":"want","type":"address","internalType":"address"}]},{"type":"error","name":"OnlyOwnerOrCoordinator","inputs":[{"name":"have","type":"address","internalType":"address"},{"name":"owner","type":"address","internalType":"address"},{"name":"coordinator","type":"address","internalType":"address"}]},{"type":"error","name":"ZeroAddress","inputs":[]}],"bytecode":{"object":"0x60c06040523480156200001157600080fd5b5060405162001473380380620014738339818101604052810190620000379190620003d4565b80338060008073ffffffffffffffffffffffffffffffffffffffff168273ffffffffffffffffffffffffffffffffffffffff1603620000ad576040517f08c379a0000000000000000000000000000000000000000000000000000000008152600401620000a49062000491565b60405180910390fd5b816000806101000a81548173ffffffffffffffffffffffffffffffffffffffff021916908373ffffffffffffffffffffffffffffffffffffffff160217905550600073ffffffffffffffffffffffffffffffffffffffff168173ffffffffffffffffffffffffffffffffffffffff1614620001345762000133816200020060201b60201c565b5b505050600073ffffffffffffffffffffffffffffffffffffffff168173ffffffffffffffffffffffffffffffffffffffff16036200019e576040517fd92e233d00000000000000000000000000000000000000000000000000000000815260040160405180910390fd5b80600260006101000a81548173ffffffffffffffffffffffffffffffffffffffff021916908373ffffffffffffffffffffffffffffffffffffffff1602179055505082608081815250508160a081815250504260038190555050505062000525565b3373ffffffffffffffffffffffffffffffffffffffff168173ffffffffffffffffffffffffffffffffffffffff160362000271576040517f08c379a0000000000000000000000000000000000000000000000000000000008152600401620002689062000503565b60405180910390fd5b80600160006101000a81548173ffffffffffffffffffffffffffffffffffffffff021916908373ffffffffffffffffffffffffffffffffffffffff1602179055508073ffffffffffffffffffffffffffffffffffffffff1660008054906101000a900473ffffffffffffffffffffffffffffffffffffffff1673ffffffffffffffffffffffffffffffffffffffff167fed8889f560326eb138920d842192f0eb3dd22b4f139c87a2c57538e05bae127860405160405180910390a350565b600080fd5b6000819050919050565b620003498162000334565b81146200035557600080fd5b50565b60008151905062000369816200033e565b92915050565b600073ffffffffffffffffffffffffffffffffffffffff82169050919050565b60006200039c826200036f565b9050919050565b620003ae816200038f565b8114620003ba57600080fd5b50565b600081519050620003ce81620003a3565b92915050565b600080600060608486031215620003f057620003ef6200032f565b5b6000620004008682870162000358565b9350506020620004138682870162000358565b92505060406200042686828701620003bd565b9150509250925092565b600082825260208201905092915050565b7f43616e6e6f7420736574206f776e657220746f207a65726f0000000000000000600082015250565b60006200047960188362000430565b9150620004868262000441565b602082019050919050565b60006020820190508181036000830152620004ac816200046a565b9050919050565b7f43616e6e6f74207472616e7366657220746f2073656c66000000000000000000600082015250565b6000620004eb60178362000430565b9150620004f882620004b3565b602082019050919050565b600060208201905081810360008301526200051e81620004dc565b9050919050565b60805160a051610f216200055260003960006102f701526000818161020b01526107110152610f216000f3fe6080604052600436106100915760003560e01c80638da5cb5b116100595780638da5cb5b146101555780638ea98117146101805780639b1865ec146101a95780639eccacf6146101b3578063f2fde38b146101de57610091565b806309bc33a7146100965780631fe543e3146100c157806333a99e04146100ea57806379ba50971461010157806382502ff814610118575b600080fd5b3480156100a257600080fd5b506100ab610207565b6040516100b89190610a25565b60405180910390f35b3480156100cd57600080fd5b506100e860048036038101906100e39190610adb565b61022f565b005b3480156100f657600080fd5b506100ff6102f5565b005b34801561010d57600080fd5b50610116610331565b005b34801561012457600080fd5b5061013f600480360381019061013a9190610b3b565b6104c6565b60405161014c9190610ba9565b60405180910390f35b34801561016157600080fd5b5061016a610505565b6040516101779190610be5565b60405180910390f35b34801561018c57600080fd5b506101a760048036038101906101a29190610c2c565b61052e565b005b6101b161070f565b005b3480156101bf57600080fd5b506101c8610811565b6040516101d59190610cb8565b60405180910390f35b3480156101ea57600080fd5b5061020560048036038101906102009190610c2c565b610837565b005b60007f0000000000000000000000000000000000000000000000000000000000000000905090565b600260009054906101000a900473ffffffffffffffffffffffffffffffffffffffff1673ffffffffffffffffffffffffffffffffffffffff163373ffffffffffffffffffffffffffffffffffffffff16146102e55733600260009054906101000a900473ffffffffffffffffffffffffffffffffffffffff166040517f1cf993f40000000000000000000000000000000000000000000000000000000081526004016102dc929190610cd3565b60405180910390fd5b6102f083838361084b565b505050565b7f0000000000000000000000000000000000000000000000000000000000000000600354426103249190610d2b565b101561032f57600080fd5b565b600160009054906101000a900473ffffffffffffffffffffffffffffffffffffffff1673ffffffffffffffffffffffffffffffffffffffff163373ffffffffffffffffffffffffffffffffffffffff16146103c1576040517f08c379a00000000000000000000000000000000000000000000000000000000081526004016103b890610dbc565b60405180910390fd5b60008060009054906101000a900473ffffffffffffffffffffffffffffffffffffffff169050336000806101000a81548173ffffffffffffffffffffffffffffffffffffffff021916908373ffffffffffffffffffffffffffffffffffffffff1602179055506000600160006101000a81548173ffffffffffffffffffffffffffffffffffffffff021916908373ffffffffffffffffffffffffffffffffffffffff1602179055503373ffffffffffffffffffffffffffffffffffffffff168173ffffffffffffffffffffffffffffffffffffffff167f8be0079c531659141344cd1fd0a4f28419497f9722a3daafe3b4186f6b6457e060405160405180910390a350565b600481815481106104d657600080fd5b906000526020600020016000915054906101000a900473ffffffffffffffffffffffffffffffffffffffff1681565b60008060009054906101000a900473ffffffffffffffffffffffffffffffffffffffff16905090565b610536610505565b73ffffffffffffffffffffffffffffffffffffffff163373ffffffffffffffffffffffffffffffffffffffff16141580156105bf5750600260009054906101000a900473ffffffffffffffffffffffffffffffffffffffff1673ffffffffffffffffffffffffffffffffffffffff163373ffffffffffffffffffffffffffffffffffffffff1614155b1561062e57336105cd610505565b600260009054906101000a900473ffffffffffffffffffffffffffffffffffffffff166040517f061db9c100000000000000000000000000000000000000000000000000000000815260040161062593929190610ddc565b60405180910390fd5b600073ffffffffffffffffffffffffffffffffffffffff168173ffffffffffffffffffffffffffffffffffffffff1603610694576040517fd92e233d00000000000000000000000000000000000000000000000000000000815260040160405180910390fd5b80600260006101000a81548173ffffffffffffffffffffffffffffffffffffffff021916908373ffffffffffffffffffffffffffffffffffffffff1602179055507fd1a6a14209a385a964d036e404cb5cfb71f4000cdb03c9366292430787261be6816040516107049190610be5565b60405180910390a150565b7f0000000000000000000000000000000000000000000000000000000000000000341015610769576040517fa888076b00000000000000000000000000000000000000000000000000000000815260040160405180910390fd5b6004339080600181540180825580915050600190039060005260206000200160009091909190916101000a81548173ffffffffffffffffffffffffffffffffffffffff021916908373ffffffffffffffffffffffffffffffffffffffff1602179055503373ffffffffffffffffffffffffffffffffffffffff167f3a5c13ff753770560290abe3370a32d85cff26204c9055166b466546a5da255660405160405180910390a2565b600260009054906101000a900473ffffffffffffffffffffffffffffffffffffffff1681565b61083f610850565b610848816108e0565b50565b505050565b60008054906101000a900473ffffffffffffffffffffffffffffffffffffffff1673ffffffffffffffffffffffffffffffffffffffff163373ffffffffffffffffffffffffffffffffffffffff16146108de576040517f08c379a00000000000000000000000000000000000000000000000000000000081526004016108d590610e5f565b60405180910390fd5b565b3373ffffffffffffffffffffffffffffffffffffffff168173ffffffffffffffffffffffffffffffffffffffff160361094e576040517f08c379a000000000000000000000000000000000000000000000000000000000815260040161094590610ecb565b60405180910390fd5b80600160006101000a81548173ffffffffffffffffffffffffffffffffffffffff021916908373ffffffffffffffffffffffffffffffffffffffff1602179055508073ffffffffffffffffffffffffffffffffffffffff1660008054906101000a900473ffffffffffffffffffffffffffffffffffffffff1673ffffffffffffffffffffffffffffffffffffffff167fed8889f560326eb138920d842192f0eb3dd22b4f139c87a2c57538e05bae127860405160405180910390a350565b6000819050919050565b610a1f81610a0c565b82525050565b6000602082019050610a3a6000830184610a16565b92915050565b600080fd5b600080fd5b610a5381610a0c565b8114610a5e57600080fd5b50565b600081359050610a7081610a4a565b92915050565b600080fd5b600080fd5b600080fd5b60008083601f840112610a9b57610a9a610a76565b5b8235905067ffffffffffffffff811115610ab857610ab7610a7b565b5b602083019150836020820283011115610ad457610ad3610a80565b5b9250929050565b600080600060408486031215610af457610af3610a40565b5b6000610b0286828701610a61565b935050602084013567ffffffffffffffff811115610b2357610b22610a45565b5b610b2f86828701610a85565b92509250509250925092565b600060208284031215610b5157610b50610a40565b5b6000610b5f84828501610a61565b91505092915050565b600073ffffffffffffffffffffffffffffffffffffffff82169050919050565b6000610b9382610b68565b9050919050565b610ba381610b88565b82525050565b6000602082019050610bbe6000830184610b9a565b92915050565b6000610bcf82610b68565b9050919050565b610bdf81610bc4565b82525050565b6000602082019050610bfa6000830184610bd6565b92915050565b610c0981610bc4565b8114610c1457600080fd5b50565b600081359050610c2681610c00565b92915050565b600060208284031215610c4257610c41610a40565b5b6000610c5084828501610c17565b91505092915050565b6000819050919050565b6000610c7e610c79610c7484610b68565b610c59565b610b68565b9050919050565b6000610c9082610c63565b9050919050565b6000610ca282610c85565b9050919050565b610cb281610c97565b82525050565b6000602082019050610ccd6000830184610ca9565b92915050565b6000604082019050610ce86000830185610bd6565b610cf56020830184610bd6565b9392505050565b7f4e487b7100000000000000000000000000000000000000000000000000000000600052601160045260246000fd5b6000610d3682610a0c565b9150610d4183610a0c565b9250828203905081811115610d5957610d58610cfc565b5b92915050565b600082825260208201905092915050565b7f4d7573742062652070726f706f736564206f776e657200000000000000000000600082015250565b6000610da6601683610d5f565b9150610db182610d70565b602082019050919050565b60006020820190508181036000830152610dd581610d99565b9050919050565b6000606082019050610df16000830186610bd6565b610dfe6020830185610bd6565b610e0b6040830184610bd6565b949350505050565b7f4f6e6c792063616c6c61626c65206279206f776e657200000000000000000000600082015250565b6000610e49601683610d5f565b9150610e5482610e13565b602082019050919050565b60006020820190508181036000830152610e7881610e3c565b9050919050565b7f43616e6e6f74207472616e7366657220746f2073656c66000000000000000000600082015250565b6000610eb5601783610d5f565b9150610ec082610e7f565b602082019050919050565b60006020820190508181036000830152610ee481610ea8565b905091905056fea2646970667358221220e640a9439b6483158596206ff1b1076d39915e143d1af515b8151a9304521a6a64736f6c63430008130033","linkReferences":{}},"methodIdentifiers":{"acceptOwnership()":"79ba5097","getEntranceFee()":"09bc33a7","joinGiveAway()":"9b1865ec","owner()":"8da5cb5b","rawFulfillRandomWords(uint256,uint256[])":"1fe543e3","s_people(uint256)":"82502ff8","s_vrfCoordinator()":"9eccacf6","selectWinner()":"33a99e04","setCoordinator(address)":"8ea98117","transferOwnership(address)":"f2fde38b"},"id":8}