{"abi":[{"type":"constructor","inputs":[{"name":"entranceFee","type":"uint256","internalType":"uint256"},{"name":"interval","type":"uint256","internalType":"uint256"},{"name":"vrfCoordinator","type":"address","internalType":"address"},{"name":"gasLane","type":"bytes32","internalType":"bytes32"},{"name":"subscriptionId","type":"uint256","internalType":"uint256"},{"name":"callBackGasLimit","type":"uint32","internalType":"uint32"}],"stateMutability":"nonpayable"},{"type":"function","name":"acceptOwnership","inputs":[],"outputs":[],"stateMutability":"nonpayable"},{"type":"function","name":"checkUpkeep","inputs":[{"name":"","type":"bytes","internalType":"bytes"}],"outputs":[{"name":"upKeepNeeded","type":"bool","internalType":"bool"},{"name":"","type":"bytes","internalType":"bytes"}],"stateMutability":"view"},{"type":"function","name":"getEntranceFee","inputs":[],"outputs":[{"name":"","type":"uint256","internalType":"uint256"}],"stateMutability":"view"},{"type":"function","name":"getGiveAwaystate","inputs":[],"outputs":[{"name":"","type":"uint8","internalType":"enum GiveawayDapp.GiveAwayState"}],"stateMutability":"view"},{"type":"function","name":"getPlayers","inputs":[{"name":"indexOfPlayers","type":"uint256","internalType":"uint256"}],"outputs":[{"name":"","type":"address","internalType":"address"}],"stateMutability":"view"},{"type":"function","name":"joinGiveAway","inputs":[],"outputs":[],"stateMutability":"payable"},{"type":"function","name":"owner","inputs":[],"outputs":[{"name":"","type":"address","internalType":"address"}],"stateMutability":"view"},{"type":"function","name":"performUpkeep","inputs":[{"name":"","type":"bytes","internalType":"bytes"}],"outputs":[],"stateMutability":"nonpayable"},{"type":"function","name":"rawFulfillRandomWords","inputs":[{"name":"requestId","type":"uint256","internalType":"uint256"},{"name":"randomWords","type":"uint256[]","internalType":"uint256[]"}],"outputs":[],"stateMutability":"nonpayable"},{"type":"function","name":"s_people","inputs":[{"name":"","type":"uint256","internalType":"uint256"}],"outputs":[{"name":"","type":"address","internalType":"address payable"}],"stateMutability":"view"},{"type":"function","name":"s_vrfCoordinator","inputs":[],"outputs":[{"name":"","type":"address","internalType":"contract IVRFCoordinatorV2Plus"}],"stateMutability":"view"},{"type":"function","name":"setCoordinator","inputs":[{"name":"_vrfCoordinator","type":"address","internalType":"address"}],"outputs":[],"stateMutability":"nonpayable"},{"type":"function","name":"transferOwnership","inputs":[{"name":"to","type":"address","internalType":"address"}],"outputs":[],"stateMutability":"nonpayable"},{"type":"event","name":"CoordinatorSet","inputs":[{"name":"vrfCoordinator","type":"address","indexed":false,"internalType":"address"}],"anonymous":false},{"type":"event","name":"GiveawayEntered","inputs":[{"name":"person","type":"address","indexed":true,"internalType":"address"}],"anonymous":false},{"type":"event","name":"OwnershipTransferRequested","inputs":[{"name":"from","type":"address","indexed":true,"internalType":"address"},{"name":"to","type":"address","indexed":true,"internalType":"address"}],"anonymous":false},{"type":"event","name":"OwnershipTransferred","inputs":[{"name":"from","type":"address","indexed":true,"internalType":"address"},{"name":"to","type":"address","indexed":true,"internalType":"address"}],"anonymous":false},{"type":"event","name":"winnerPicked","inputs":[{"name":"recentWinner","type":"address","indexed":true,"internalType":"address"}],"anonymous":false},{"type":"error","name":"GIVEAWAY_notOPen","inputs":[]},{"type":"error","name":"GiveAway_UpKeepNotNeeded","inputs":[{"name":"balance","type":"uint256","internalType":"uint256"},{"name":"playersLength","type":"uint256","internalType":"uint256"},{"name":"giveAwayStae","type":"uint256","internalType":"uint256"}]},{"type":"error","name":"GiveAway__NotEnoughEth","inputs":[]},{"type":"error","name":"OnlyCoordinatorCanFulfill","inputs":[{"name":"have","type":"address","internalType":"address"},{"name":"want","type":"address","internalType":"address"}]},{"type":"error","name":"OnlyOwnerOrCoordinator","inputs":[{"name":"have","type":"address","internalType":"address"},{"name":"owner","type":"address","internalType":"address"},{"name":"coordinator","type":"address","internalType":"address"}]},{"type":"error","name":"TRANSFER__FAILED","inputs":[]},{"type":"error","name":"ZeroAddress","inputs":[]}],"bytecode":{"object":"0x6101206040523480156200001257600080fd5b506040516200248e3803806200248e8339818101604052810190620000389190620004a7565b83338060008073ffffffffffffffffffffffffffffffffffffffff168273ffffffffffffffffffffffffffffffffffffffff1603620000ae576040517f08c379a0000000000000000000000000000000000000000000000000000000008152600401620000a590620005a4565b60405180910390fd5b816000806101000a81548173ffffffffffffffffffffffffffffffffffffffff021916908373ffffffffffffffffffffffffffffffffffffffff160217905550600073ffffffffffffffffffffffffffffffffffffffff168173ffffffffffffffffffffffffffffffffffffffff1614620001355762000134816200025760201b60201c565b5b505050600073ffffffffffffffffffffffffffffffffffffffff168173ffffffffffffffffffffffffffffffffffffffff16036200019f576040517fd92e233d00000000000000000000000000000000000000000000000000000000815260040160405180910390fd5b80600260006101000a81548173ffffffffffffffffffffffffffffffffffffffff021916908373ffffffffffffffffffffffffffffffffffffffff1602179055505085608081815250508460a081815250508260c081815250508161010081815250508063ffffffff1660e08163ffffffff1681525050426004819055506000600660006101000a81548160ff02191690836001811115620002465762000245620005c6565b5b021790555050505050505062000667565b3373ffffffffffffffffffffffffffffffffffffffff168173ffffffffffffffffffffffffffffffffffffffff1603620002c8576040517f08c379a0000000000000000000000000000000000000000000000000000000008152600401620002bf9062000645565b60405180910390fd5b80600160006101000a81548173ffffffffffffffffffffffffffffffffffffffff021916908373ffffffffffffffffffffffffffffffffffffffff1602179055508073ffffffffffffffffffffffffffffffffffffffff1660008054906101000a900473ffffffffffffffffffffffffffffffffffffffff1673ffffffffffffffffffffffffffffffffffffffff167fed8889f560326eb138920d842192f0eb3dd22b4f139c87a2c57538e05bae127860405160405180910390a350565b600080fd5b6000819050919050565b620003a0816200038b565b8114620003ac57600080fd5b50565b600081519050620003c08162000395565b92915050565b600073ffffffffffffffffffffffffffffffffffffffff82169050919050565b6000620003f382620003c6565b9050919050565b6200040581620003e6565b81146200041157600080fd5b50565b6000815190506200042581620003fa565b92915050565b6000819050919050565b62000440816200042b565b81146200044c57600080fd5b50565b600081519050620004608162000435565b92915050565b600063ffffffff82169050919050565b620004818162000466565b81146200048d57600080fd5b50565b600081519050620004a18162000476565b92915050565b60008060008060008060c08789031215620004c757620004c662000386565b5b6000620004d789828a01620003af565b9650506020620004ea89828a01620003af565b9550506040620004fd89828a0162000414565b94505060606200051089828a016200044f565b93505060806200052389828a01620003af565b92505060a06200053689828a0162000490565b9150509295509295509295565b600082825260208201905092915050565b7f43616e6e6f7420736574206f776e657220746f207a65726f0000000000000000600082015250565b60006200058c60188362000543565b9150620005998262000554565b602082019050919050565b60006020820190508181036000830152620005bf816200057d565b9050919050565b7f4e487b7100000000000000000000000000000000000000000000000000000000600052602160045260246000fd5b7f43616e6e6f74207472616e7366657220746f2073656c66000000000000000000600082015250565b60006200062d60178362000543565b91506200063a82620005f5565b602082019050919050565b6000602082019050818103600083015262000660816200061e565b9050919050565b60805160a05160c05160e05161010051611ddb620006b360003960006104c7015260006104f8015260006104a10152600061064b0152600081816102f40152610ae50152611ddb6000f3fe6080604052600436106100c25760003560e01c806382502ff81161007f5780639b1865ec116100595780639b1865ec146102675780639eccacf614610271578063d265c3c41461029c578063f2fde38b146102c7576100c2565b806382502ff8146101d65780638da5cb5b146102135780638ea981171461023e576100c2565b806309bc33a7146100c75780631fe543e3146100f25780634585e33b1461011b578063460e2049146101445780636e04ff0d1461018157806379ba5097146101bf575b600080fd5b3480156100d357600080fd5b506100dc6102f0565b6040516100e991906111f3565b60405180910390f35b3480156100fe57600080fd5b50610119600480360381019061011491906112b3565b610318565b005b34801561012757600080fd5b50610142600480360381019061013d9190611369565b6103de565b005b34801561015057600080fd5b5061016b600480360381019061016691906113b6565b6105fb565b6040516101789190611424565b60405180910390f35b34801561018d57600080fd5b506101a860048036038101906101a39190611580565b610643565b6040516101b6929190611663565b60405180910390f35b3480156101cb57600080fd5b506101d4610705565b005b3480156101e257600080fd5b506101fd60048036038101906101f891906113b6565b61089a565b60405161020a91906116b4565b60405180910390f35b34801561021f57600080fd5b506102286108d9565b6040516102359190611424565b60405180910390f35b34801561024a57600080fd5b50610265600480360381019061026091906116fb565b610902565b005b61026f610ae3565b005b34801561027d57600080fd5b50610286610c52565b6040516102939190611787565b60405180910390f35b3480156102a857600080fd5b506102b1610c78565b6040516102be9190611819565b60405180910390f35b3480156102d357600080fd5b506102ee60048036038101906102e991906116fb565b610c8f565b005b60007f0000000000000000000000000000000000000000000000000000000000000000905090565b600260009054906101000a900473ffffffffffffffffffffffffffffffffffffffff1673ffffffffffffffffffffffffffffffffffffffff163373ffffffffffffffffffffffffffffffffffffffff16146103ce5733600260009054906101000a900473ffffffffffffffffffffffffffffffffffffffff166040517f1cf993f40000000000000000000000000000000000000000000000000000000081526004016103c5929190611834565b60405180910390fd5b6103d9838383610ca3565b505050565b60006103f860405180602001604052806000815250610643565b509050806104675747600580549050600660009054906101000a900460ff166001811115610429576104286117a2565b5b6040517f9c3c80a800000000000000000000000000000000000000000000000000000000815260040161045e9392919061185d565b60405180910390fd5b6001600660006101000a81548160ff0219169083600181111561048d5761048c6117a2565b5b021790555060006040518060c001604052807f000000000000000000000000000000000000000000000000000000000000000081526020017f00000000000000000000000000000000000000000000000000000000000000008152602001600361ffff1681526020017f000000000000000000000000000000000000000000000000000000000000000063ffffffff168152602001600161ffff1663ffffffff16815260200161054d604051806020016040528060001515815250610edf565b81525090506000600260009054906101000a900473ffffffffffffffffffffffffffffffffffffffff1673ffffffffffffffffffffffffffffffffffffffff16639b1c385e836040518263ffffffff1660e01b81526004016105af91906119cb565b6020604051808303816000875af11580156105ce573d6000803e3d6000fd5b505050506040513d601f19601f820116820180604052508101906105f29190611a02565b90505050505050565b60006005828154811061061157610610611a2f565b5b9060005260206000200160009054906101000a900473ffffffffffffffffffffffffffffffffffffffff169050919050565b6000606060007f0000000000000000000000000000000000000000000000000000000000000000600454426106789190611a8d565b101590506000806001811115610691576106906117a2565b5b600660009054906101000a900460ff1660018111156106b3576106b26117a2565b5b149050600080471190506000806005805490501190508380156106d35750825b80156106dc5750815b80156106e55750805b955085604051806020016040528060008152509550955050505050915091565b600160009054906101000a900473ffffffffffffffffffffffffffffffffffffffff1673ffffffffffffffffffffffffffffffffffffffff163373ffffffffffffffffffffffffffffffffffffffff1614610795576040517f08c379a000000000000000000000000000000000000000000000000000000000815260040161078c90611b1e565b60405180910390fd5b60008060009054906101000a900473ffffffffffffffffffffffffffffffffffffffff169050336000806101000a81548173ffffffffffffffffffffffffffffffffffffffff021916908373ffffffffffffffffffffffffffffffffffffffff1602179055506000600160006101000a81548173ffffffffffffffffffffffffffffffffffffffff021916908373ffffffffffffffffffffffffffffffffffffffff1602179055503373ffffffffffffffffffffffffffffffffffffffff168173ffffffffffffffffffffffffffffffffffffffff167f8be0079c531659141344cd1fd0a4f28419497f9722a3daafe3b4186f6b6457e060405160405180910390a350565b600581815481106108aa57600080fd5b906000526020600020016000915054906101000a900473ffffffffffffffffffffffffffffffffffffffff1681565b60008060009054906101000a900473ffffffffffffffffffffffffffffffffffffffff16905090565b61090a6108d9565b73ffffffffffffffffffffffffffffffffffffffff163373ffffffffffffffffffffffffffffffffffffffff16141580156109935750600260009054906101000a900473ffffffffffffffffffffffffffffffffffffffff1673ffffffffffffffffffffffffffffffffffffffff163373ffffffffffffffffffffffffffffffffffffffff1614155b15610a0257336109a16108d9565b600260009054906101000a900473ffffffffffffffffffffffffffffffffffffffff166040517f061db9c10000000000000000000000000000000000000000000000000000000081526004016109f993929190611b3e565b60405180910390fd5b600073ffffffffffffffffffffffffffffffffffffffff168173ffffffffffffffffffffffffffffffffffffffff1603610a68576040517fd92e233d00000000000000000000000000000000000000000000000000000000815260040160405180910390fd5b80600260006101000a81548173ffffffffffffffffffffffffffffffffffffffff021916908373ffffffffffffffffffffffffffffffffffffffff1602179055507fd1a6a14209a385a964d036e404cb5cfb71f4000cdb03c9366292430787261be681604051610ad89190611424565b60405180910390a150565b7f0000000000000000000000000000000000000000000000000000000000000000341015610b3d576040517fa888076b00000000000000000000000000000000000000000000000000000000815260040160405180910390fd5b60006001811115610b5157610b506117a2565b5b600660009054906101000a900460ff166001811115610b7357610b726117a2565b5b14610baa576040517f3ae8aea400000000000000000000000000000000000000000000000000000000815260040160405180910390fd5b6005339080600181540180825580915050600190039060005260206000200160009091909190916101000a81548173ffffffffffffffffffffffffffffffffffffffff021916908373ffffffffffffffffffffffffffffffffffffffff1602179055503373ffffffffffffffffffffffffffffffffffffffff167f3a5c13ff753770560290abe3370a32d85cff26204c9055166b466546a5da255660405160405180910390a2565b600260009054906101000a900473ffffffffffffffffffffffffffffffffffffffff1681565b6000600660009054906101000a900460ff16905090565b610c97610f77565b610ca081611007565b50565b600060058054905083836000818110610cbf57610cbe611a2f565b5b90506020020135610cd09190611ba4565b9050600060058281548110610ce857610ce7611a2f565b5b9060005260206000200160009054906101000a900473ffffffffffffffffffffffffffffffffffffffff16905080600360006101000a81548173ffffffffffffffffffffffffffffffffffffffff021916908373ffffffffffffffffffffffffffffffffffffffff1602179055506000600660006101000a81548160ff02191690836001811115610d7c57610d7b6117a2565b5b0217905550600067ffffffffffffffff811115610d9c57610d9b611455565b5b604051908082528060200260200182016040528015610dca5781602001602082028036833780820191505090505b5060059080519060200190610de0929190611133565b50426004819055508073ffffffffffffffffffffffffffffffffffffffff167f794919b0f484b8e90b1b817ac7f880f846fbd8a9813dee2a378e820db094e3d160405160405180910390a260008173ffffffffffffffffffffffffffffffffffffffff1647604051610e5190611c06565b60006040518083038185875af1925050503d8060008114610e8e576040519150601f19603f3d011682016040523d82523d6000602084013e610e93565b606091505b5050905080610ed7576040517f08c379a0000000000000000000000000000000000000000000000000000000008152600401610ece90611c67565b60405180910390fd5b505050505050565b60607f92fd13387c7fe7befbc38d303d6468778fb9731bc4583f17d92989c6fcfdeaaa82604051602401610f139190611cb2565b604051602081830303815290604052907bffffffffffffffffffffffffffffffffffffffffffffffffffffffff19166020820180517bffffffffffffffffffffffffffffffffffffffffffffffffffffffff83818316178352505050509050919050565b60008054906101000a900473ffffffffffffffffffffffffffffffffffffffff1673ffffffffffffffffffffffffffffffffffffffff163373ffffffffffffffffffffffffffffffffffffffff1614611005576040517f08c379a0000000000000000000000000000000000000000000000000000000008152600401610ffc90611d19565b60405180910390fd5b565b3373ffffffffffffffffffffffffffffffffffffffff168173ffffffffffffffffffffffffffffffffffffffff1603611075576040517f08c379a000000000000000000000000000000000000000000000000000000000815260040161106c90611d85565b60405180910390fd5b80600160006101000a81548173ffffffffffffffffffffffffffffffffffffffff021916908373ffffffffffffffffffffffffffffffffffffffff1602179055508073ffffffffffffffffffffffffffffffffffffffff1660008054906101000a900473ffffffffffffffffffffffffffffffffffffffff1673ffffffffffffffffffffffffffffffffffffffff167fed8889f560326eb138920d842192f0eb3dd22b4f139c87a2c57538e05bae127860405160405180910390a350565b8280548282559060005260206000209081019282156111ac579160200282015b828111156111ab5782518260006101000a81548173ffffffffffffffffffffffffffffffffffffffff021916908373ffffffffffffffffffffffffffffffffffffffff16021790555091602001919060010190611153565b5b5090506111b991906111bd565b5090565b5b808211156111d65760008160009055506001016111be565b5090565b6000819050919050565b6111ed816111da565b82525050565b600060208201905061120860008301846111e4565b92915050565b6000604051905090565b600080fd5b600080fd5b61122b816111da565b811461123657600080fd5b50565b60008135905061124881611222565b92915050565b600080fd5b600080fd5b600080fd5b60008083601f8401126112735761127261124e565b5b8235905067ffffffffffffffff8111156112905761128f611253565b5b6020830191508360208202830111156112ac576112ab611258565b5b9250929050565b6000806000604084860312156112cc576112cb611218565b5b60006112da86828701611239565b935050602084013567ffffffffffffffff8111156112fb576112fa61121d565b5b6113078682870161125d565b92509250509250925092565b60008083601f8401126113295761132861124e565b5b8235905067ffffffffffffffff81111561134657611345611253565b5b60208301915083600182028301111561136257611361611258565b5b9250929050565b600080602083850312156113805761137f611218565b5b600083013567ffffffffffffffff81111561139e5761139d61121d565b5b6113aa85828601611313565b92509250509250929050565b6000602082840312156113cc576113cb611218565b5b60006113da84828501611239565b91505092915050565b600073ffffffffffffffffffffffffffffffffffffffff82169050919050565b600061140e826113e3565b9050919050565b61141e81611403565b82525050565b60006020820190506114396000830184611415565b92915050565b600080fd5b6000601f19601f8301169050919050565b7f4e487b7100000000000000000000000000000000000000000000000000000000600052604160045260246000fd5b61148d82611444565b810181811067ffffffffffffffff821117156114ac576114ab611455565b5b80604052505050565b60006114bf61120e565b90506114cb8282611484565b919050565b600067ffffffffffffffff8211156114eb576114ea611455565b5b6114f482611444565b9050602081019050919050565b82818337600083830152505050565b600061152361151e846114d0565b6114b5565b90508281526020810184848401111561153f5761153e61143f565b5b61154a848285611501565b509392505050565b600082601f8301126115675761156661124e565b5b8135611577848260208601611510565b91505092915050565b60006020828403121561159657611595611218565b5b600082013567ffffffffffffffff8111156115b4576115b361121d565b5b6115c084828501611552565b91505092915050565b60008115159050919050565b6115de816115c9565b82525050565b600081519050919050565b600082825260208201905092915050565b60005b8381101561161e578082015181840152602081019050611603565b60008484015250505050565b6000611635826115e4565b61163f81856115ef565b935061164f818560208601611600565b61165881611444565b840191505092915050565b600060408201905061167860008301856115d5565b818103602083015261168a818461162a565b90509392505050565b600061169e826113e3565b9050919050565b6116ae81611693565b82525050565b60006020820190506116c960008301846116a5565b92915050565b6116d881611403565b81146116e357600080fd5b50565b6000813590506116f5816116cf565b92915050565b60006020828403121561171157611710611218565b5b600061171f848285016116e6565b91505092915050565b6000819050919050565b600061174d611748611743846113e3565b611728565b6113e3565b9050919050565b600061175f82611732565b9050919050565b600061177182611754565b9050919050565b61178181611766565b82525050565b600060208201905061179c6000830184611778565b92915050565b7f4e487b7100000000000000000000000000000000000000000000000000000000600052602160045260246000fd5b600281106117e2576117e16117a2565b5b50565b60008190506117f3826117d1565b919050565b6000611803826117e5565b9050919050565b611813816117f8565b82525050565b600060208201905061182e600083018461180a565b92915050565b60006040820190506118496000830185611415565b6118566020830184611415565b9392505050565b600060608201905061187260008301866111e4565b61187f60208301856111e4565b61188c60408301846111e4565b949350505050565b6000819050919050565b6118a781611894565b82525050565b6118b6816111da565b82525050565b600061ffff82169050919050565b6118d3816118bc565b82525050565b600063ffffffff82169050919050565b6118f2816118d9565b82525050565b600082825260208201905092915050565b6000611914826115e4565b61191e81856118f8565b935061192e818560208601611600565b61193781611444565b840191505092915050565b600060c08301600083015161195a600086018261189e565b50602083015161196d60208601826118ad565b50604083015161198060408601826118ca565b50606083015161199360608601826118e9565b5060808301516119a660808601826118e9565b5060a083015184820360a08601526119be8282611909565b9150508091505092915050565b600060208201905081810360008301526119e58184611942565b905092915050565b6000815190506119fc81611222565b92915050565b600060208284031215611a1857611a17611218565b5b6000611a26848285016119ed565b91505092915050565b7f4e487b7100000000000000000000000000000000000000000000000000000000600052603260045260246000fd5b7f4e487b7100000000000000000000000000000000000000000000000000000000600052601160045260246000fd5b6000611a98826111da565b9150611aa3836111da565b9250828203905081811115611abb57611aba611a5e565b5b92915050565b600082825260208201905092915050565b7f4d7573742062652070726f706f736564206f776e657200000000000000000000600082015250565b6000611b08601683611ac1565b9150611b1382611ad2565b602082019050919050565b60006020820190508181036000830152611b3781611afb565b9050919050565b6000606082019050611b536000830186611415565b611b606020830185611415565b611b6d6040830184611415565b949350505050565b7f4e487b7100000000000000000000000000000000000000000000000000000000600052601260045260246000fd5b6000611baf826111da565b9150611bba836111da565b925082611bca57611bc9611b75565b5b828206905092915050565b600081905092915050565b50565b6000611bf0600083611bd5565b9150611bfb82611be0565b600082019050919050565b6000611c1182611be3565b9150819050919050565b7f5472616e73666572206661696c65640000000000000000000000000000000000600082015250565b6000611c51600f83611ac1565b9150611c5c82611c1b565b602082019050919050565b60006020820190508181036000830152611c8081611c44565b9050919050565b611c90816115c9565b82525050565b602082016000820151611cac6000850182611c87565b50505050565b6000602082019050611cc76000830184611c96565b92915050565b7f4f6e6c792063616c6c61626c65206279206f776e657200000000000000000000600082015250565b6000611d03601683611ac1565b9150611d0e82611ccd565b602082019050919050565b60006020820190508181036000830152611d3281611cf6565b9050919050565b7f43616e6e6f74207472616e7366657220746f2073656c66000000000000000000600082015250565b6000611d6f601783611ac1565b9150611d7a82611d39565b602082019050919050565b60006020820190508181036000830152611d9e81611d62565b905091905056fea2646970667358221220d38d0c43b9188d6e8b443aba6a463c8af98d28a58f47b6c288fec75bba8c180464736f6c63430008130033","linkReferences":{}},"methodIdentifiers":{"acceptOwnership()":"79ba5097","checkUpkeep(bytes)":"6e04ff0d","getEntranceFee()":"09bc33a7","getGiveAwaystate()":"d265c3c4","getPlayers(uint256)":"460e2049","joinGiveAway()":"9b1865ec","owner()":"8da5cb5b","performUpkeep(bytes)":"4585e33b","rawFulfillRandomWords(uint256,uint256[])":"1fe543e3","s_people(uint256)":"82502ff8","s_vrfCoordinator()":"9eccacf6","setCoordinator(address)":"8ea98117","transferOwnership(address)":"f2fde38b"},"id":36}