{"abi":[{"type":"constructor","inputs":[{"name":"entranceFee","type":"uint256","internalType":"uint256"}],"stateMutability":"nonpayable"},{"type":"function","name":"enterGiveAway","inputs":[],"outputs":[],"stateMutability":"payable"},{"type":"function","name":"s_people","inputs":[{"name":"","type":"uint256","internalType":"uint256"}],"outputs":[{"name":"","type":"address","internalType":"address payable"}],"stateMutability":"view"},{"type":"function","name":"selectWinner","inputs":[],"outputs":[],"stateMutability":"nonpayable"},{"type":"event","name":"giveAwayEntered","inputs":[{"name":"person","type":"address","indexed":true,"internalType":"address"}],"anonymous":false}],"bytecode":{"object":"0x608060405234801561001057600080fd5b506040516103f13803806103f18339818101604052810190610032919061007a565b80600181905550506100a7565b600080fd5b6000819050919050565b61005781610044565b811461006257600080fd5b50565b6000815190506100748161004e565b92915050565b6000602082840312156100905761008f61003f565b5b600061009e84828501610065565b91505092915050565b61033b806100b66000396000f3fe6080604052600436106100345760003560e01c806333a99e041461003957806382502ff814610050578063a763d5e21461008d575b600080fd5b34801561004557600080fd5b5061004e610097565b005b34801561005c57600080fd5b50610077600480360381019061007291906101ff565b610099565b604051610084919061026d565b60405180910390f35b6100956100d8565b005b565b600081815481106100a957600080fd5b906000526020600020016000915054906101000a900473ffffffffffffffffffffffffffffffffffffffff1681565b600154341161011c576040517f08c379a0000000000000000000000000000000000000000000000000000000008152600401610113906102e5565b60405180910390fd5b6000339080600181540180825580915050600190039060005260206000200160009091909190916101000a81548173ffffffffffffffffffffffffffffffffffffffff021916908373ffffffffffffffffffffffffffffffffffffffff1602179055503373ffffffffffffffffffffffffffffffffffffffff167ff622298d94dd4fbbf05be27b74a8a593a9de255d8f8c06afd73538952879a61860405160405180910390a2565b600080fd5b6000819050919050565b6101dc816101c9565b81146101e757600080fd5b50565b6000813590506101f9816101d3565b92915050565b600060208284031215610215576102146101c4565b5b6000610223848285016101ea565b91505092915050565b600073ffffffffffffffffffffffffffffffffffffffff82169050919050565b60006102578261022c565b9050919050565b6102678161024c565b82525050565b6000602082019050610282600083018461025e565b92915050565b600082825260208201905092915050565b7f6e6f7420656e6f7567682073656e740000000000000000000000000000000000600082015250565b60006102cf600f83610288565b91506102da82610299565b602082019050919050565b600060208201905081810360008301526102fe816102c2565b905091905056fea2646970667358221220e18245719a430a75f3413e21ba5da38b319ea58c271bd3a45f7441ea49bf705764736f6c63430008130033","linkReferences":{}},"methodIdentifiers":{"enterGiveAway()":"a763d5e2","s_people(uint256)":"82502ff8","selectWinner()":"33a99e04"},"id":9}